:100000000C9434000C9451000C9451000C94510049
:100010000C9451000C9451000C9451000C948900E4
:100020000C9451000C9451000C9451000C9451000C
:100030000C9451000C9451000C9451000C945100FC
:100040000C9451000C9451000C9451000C945100EC
:100050000C9451000C9451000C9451000C945100DC
:100060000C94EE000C94510011241FBECFEFD8E089
:10007000DEBFCDBF11E0A0E0B1E0E8EEFCE002C0E1
:1000800005900D92AE31B107D9F721E0AEE1B1E0B4
:1000900001C01D92AC32B207E1F70E941A010C9424
:1000A00072060C940000CF93C82F8A3019F48DE0AB
:1000B0000E9453008091C00085FFFCCFC093C60012
:1000C00080E090E0CF9108950E94A4029B01AC01D2
:1000D00060E074E284E799E40E94030220E030E0EB
:1000E00040E85FE30E9496010E9432030E9475027D
:1000F0007093C5006093C40088E08093C1008EE0D7
:100100008093C20081E091E09093290180932801BF
:1001100008951F920F920FB60F9211242F933F93C1
:100120004F935F936F937F938F939F93AF932091A0
:100130001E0130911F0140912001509121016091D9
:100140002201709123018091240190912501A1E069
:100150000E947F0320931E0130931F0140932001D2
:100160005093210160932201709323018093240115
:1001700090932501AF919F918F917F916F915F91A6
:100180004F913F912F910F900FBE0F901F90189598
:1001900084E08093B100E0EBF0E0808182608083B6
:1001A00082E08093700087BB1092B20089EF809349
:1001B000B30078940895F89420911E0130911F01A6
:1001C0004091200150912101609122017091230101
:1001D0008091240190912501789408951F920F92A7
:1001E0000FB60F9211248F93EF93FF938091B90074
:1001F0008C7F883A19F0883C59F00FC0809100013B
:100200008093BB00ECEBF0E080818F7A808305C0A7
:10021000ECEBF0E0808180648083ECEBF0E08081A7
:1002200080688083FF91EF918F910F900FBE0F90A8
:100230001F901895CF93DF93CDB7DEB728970FB6F1
:10024000F894DEBF0FBECDBF8FEF8AB90E94C80001
:1002500060E875E280E090E00E94640080E68093B0
:100260007C0087E880937A0088B1806388B982E057
:100270008093BA00ECEBF0E0808185648083789411
:10028000212C312C19821A821B821C821D821E8213
:100290000E94DB00422E532E642E752E862E972E42
:1002A00088879F83A22CB32CC980DA80EB80FC80E6
:1002B0000D811E810E948B03273C310541055105AC
:1002C000610571058105910519F310F3EAE7F0E086
:1002D00080818064808380917A0086FDFCCF80914C
:1002E00079008093000180910001811103C081E0B9
:1002F00080930001809100018BB9809100011F92D1
:100300008F938FE091E09F938F930E9494030F90BF
:100310000F900F900F90242C352C69827A828B825B
:100320009C8288858D83EF81EE83B2CF5058BB27A6
:10033000AA270E94AE010C94F8020E94EA0238F04B
:100340000E94F10220F039F49F3F19F426F40C9436
:10035000E7020EF4E095E7FB0C94E102E92F0E941E
:10036000090358F3BA17620773078407950720F04B
:1003700079F4A6F50C942B030EF4E0950B2EBA2F0E
:10038000A02D0B01B90190010C01CA01A00111249B
:10039000FF27591B99F0593F50F4503E68F11A1647
:1003A000F040A22F232F342F4427585FF3CF4695D8
:1003B00037952795A795F0405395C9F77EF41F16FA
:1003C000BA0B620B730B840BBAF09150A1F0FF0FC4
:1003D000BB1F661F771F881FC2F70EC0BA0F621FB0
:1003E000731F841F48F4879577956795B795F795A0
:1003F0009E3F08F0B0CF9395880F08F09927EE0F35
:100400009795879508950E9417020C94F8020E9410
:10041000F10258F00E94EA0240F029F45F3F29F00F
:100420000C94E10251110C942C030C94E7020E94ED
:10043000090368F39923B1F3552391F3951B550BE9
:10044000BB27AA2762177307840738F09F5F5F4FA7
:10045000220F331F441FAA1FA9F335D00E2E3AF0E6
:10046000E0E832D091505040E695001CCAF72BD0FE
:10047000FE2F29D0660F771F881FBB1F261737074F
:100480004807AB07B0E809F0BB0B802DBF01FF2781
:1004900093585F4F3AF09E3F510578F00C94E1027B
:1004A0000C942C035F3FE4F3983ED4F38695779544
:1004B0006795B795F7959F5FC9F7880F911D96953A
:1004C000879597F90895E1E0660F771F881FBB1F96
:1004D000621773078407BA0720F0621B730B840B43
:1004E000BA0BEE1F88F7E09508950E94110388F07B
:1004F0009F5798F0B92F9927B751B0F0E1F0660FE8
:10050000771F881F991F1AF0BA95C9F714C0B13028
:1005100091F00E942B03B1E008950C942B03672FF8
:10052000782F8827B85F39F0B93FCCF38695779557
:100530006795B395D9F73EF4909580957095619540
:100540007F4F8F4F9F4F0895E89409C097FB3EF46B
:1005500090958095709561957F4F8F4F9F4F992310
:10056000A9F0F92F96E9BB279395F695879577958E
:100570006795B795F111F8CFFAF4BB0F11F460FF4E
:100580001BC06F5F7F4F8F4F9F4F16C0882311F0A6
:1005900096E911C0772321F09EE8872F762F05C0BA
:1005A000662371F096E8862F70E060E02AF09A9555
:1005B000660F771F881FDAF7880F9695879597F94A
:1005C000089597F99F6780E870E060E008959FEFD5
:1005D00080EC089500240A941616170618060906DA
:1005E000089500240A9412161306140605060895A9
:1005F000092E0394000C11F4882352F0BB0F40F431
:10060000BF2B11F460FF04C06F5F7F4F8F4F9F4F70
:10061000089557FD9058440F551F59F05F3F71F0F2
:100620004795880F97FB991F61F09F3F79F0879559
:100630000895121613061406551FF2CF4695F1DFE2
:1006400008C0161617061806991FF1CF8695710572
:10065000610508940895E894BB2766277727CB01A6
:1006600097F908950E941103E8F09E37E8F0963953
:10067000B8F49E3848F4672F782F8827985FF9CF11
:1006800086957795679593959539D0F3B62FB17088
:100690006B0F711D811D20F4879577956795939554
:1006A0000C9456030C9471030C942C03882371F45E
:1006B000772321F09850872B762F07C0662311F4FB
:1006C00099270DC09051862B70E060E02AF09A9532
:1006D000660F771F881FDAF7880F9695879597F929
:1006E00008959F3F31F0915020F487957795679555
:1006F000B795880F911D9695879597F908950024D1
:10070000A7FD00942A0F301D401D501D601D701D57
:10071000801D901D08952A193B094C095D096E0939
:100720007F09800B910B0895A0E0B0E0EAE9F3E0C7
:100730000C944B06AE014B5F5F4FFA0161917191D2
:10074000AF0180912801909129010E94AA03E2E063
:100750000C946706ABE0B0E0E0EBF3E00C943B06F2
:100760006C017B018A01FC0117821682838181FF63
:10077000CCC1CE0101963C01F6019381F70193FDB6
:10078000859193FF81917F01882309F4BAC1853255
:1007900039F493FD859193FF81917F01853229F48E
:1007A000B60190E00E94A105E7CF912C212C312CBD
:1007B000FFE1F315D8F08B3279F038F4803279F01C
:1007C0008332A1F4232D20611DC08D3261F080336E
:1007D00069F4232D216016C0832D8260382EE32D0D
:1007E000E4603E2E2AC0F32DF8601DC037FC2DC0FA
:1007F00020ED280F2A3040F08E32B9F436FC81C14A
:10080000232D2064322E19C036FE06C08AE0989E41
:10081000200D1124922E11C0EAE02E9E200D1124ED
:10082000222EF32DF0623F2E08C08C3621F4832D4A
:100830008068382E02C0883641F4F70193FD859117
:1008400093FF81917F018111B3CF982F9F7D9554A4
:10085000933028F40C5F1F4F9FE399830DC08336BC
:1008600031F0833771F0833509F059C021C0F801A8
:10087000808189830E5F1F4F88248394912C5301BC
:1008800013C02801F2E04F0E511CF801A080B18086
:1008900036FE03C0692D70E002C06FEF7FEFC50127
:1008A0000E9496054C018201F32DFF773F2E16C062
:1008B000280122E0420E511CF801A080B18036FED2
:1008C00003C0692D70E002C06FEF7FEFC5010E9489
:1008D0008B054C01F32DF0683F2E820133FC1BC0C9
:1008E000822D90E088169906B0F4B60180E290E07F
:1008F0000E94A1052A94F4CFF50137FC859137FEBB
:1009000081915F01B60190E00E94A10521102A9417
:1009100021E0821A91088114910471F7E8C08436AD
:1009200011F0893641F5F80137FE07C06081718109
:10093000828193810C5F1F4F08C060817181072EF7
:10094000000C880B990B0E5F1F4FF32DFF763F2E87
:1009500097FF09C090958095709561957F4F8F4F57
:100960009F4FF0683F2E2AE030E0A3010E94DD0592
:10097000882E861845C0853731F4232D2F7EB22E60
:100980002AE030E025C0932D997FB92E8F36C1F033
:1009900018F4883579F0B5C0803719F0883721F020
:1009A000B0C0E92FE061BE2EB4FE0DC0FB2DF46097
:1009B000BF2E09C034FE0AC0292F2660B22E06C001
:1009C00028E030E005C020E130E002C020E132E064
:1009D000F801B7FE07C060817181828193810C5F4D
:1009E0001F4F06C06081718180E090E00E5F1F4F55
:1009F000A3010E94DD05882E8618FB2DFF773F2E70
:100A000036FE0DC0232D2E7FA22E891458F434FEFD
:100A10000BC032FC09C0832D8E7EA82E05C0B82CD9
:100A2000A32C03C0B82C01C0B92CA4FE0FC0FE013A
:100A3000E80DF11D8081803321F49A2D997EA92E35
:100A400009C0A2FE06C0B394B39404C08A2D867870
:100A500009F0B394A3FC11C0A0FE06C0B21488F440
:100A6000280C922C9B180EC0B21460F4B60180E2E0
:100A700090E00E94A105B394F7CFB21418F42B189C
:100A800002C0982C212CA4FE10C0B60180E390E097
:100A90000E94A105A2FE17C0A1FC03C088E790E058
:100AA00002C088E590E0B6010CC08A2D867859F026
:100AB000A1FE02C08BE201C080E2A7FC8DE2B6017C
:100AC00090E00E94A105891438F4B60180E390E01B
:100AD0000E94A1059A94F7CF8A94F301E80DF11DC5
:100AE0008081B60190E00E94A1058110F5CF2220FF
:100AF00009F442CEB60180E290E00E94A1052A945A
:100B0000F6CFF6018681978102C08FEF9FEF2B967B
:100B1000E2E10C945706FC01059061507040011011
:100B2000D8F7809590958E0F9F1F0895FC01615016
:100B3000704001900110D8F7809590958E0F9F1FFF
:100B400008950F931F93CF93DF93FB01238121FD22
:100B500003C08FEF9FEF2CC022FF16C04681578144
:100B6000248135814217530744F4A081B1819D014E
:100B70002F5F3F4F318320838C93268137812F5FF6
:100B80003F4F3783268314C08B01EC01FB010084A7
:100B9000F185E02D0995892BE1F6D80116968D9106
:100BA0009C911797019617969C938E931697CE015A
:100BB000DF91CF911F910F910895FA01AA27283054
:100BC00051F1203181F1E8946F936E7F6E5F7F4F1A
:100BD0008F4F9F4FAF4FB1E03ED0B4E03CD0670F96
:100BE000781F891F9A1FA11D680F791F8A1F911DE9
:100BF000A11D6A0F711D811D911DA11D20D009F439
:100C000068943F912AE0269F11243019305D31937A
:100C1000DEF6CF010895462F4770405D4193B3E063
:100C20000FD0C9F7F6CF462F4F70405D4A3318F00A
:100C3000495D31FD4052419302D0A9F7EACFB4E0BB
:100C4000A6959795879577956795BA95C9F7009773
:100C50006105710508959B01AC010A2E0694579514
:100C6000479537952795BA95C9F7620F731F841F6B
:100C7000951FA01D08952F923F924F925F926F9201
:100C80007F928F929F92AF92BF92CF92DF92EF921C
:100C9000FF920F931F93CF93DF93CDB7DEB7CA1B9D
:100CA000DB0B0FB6F894DEBF0FBECDBF09942A88C8
:100CB000398848885F846E847D848C849B84AA8470
:100CC000B984C884DF80EE80FD800C811B81AA81FD
:100CD000B981CE0FD11D0FB6F894DEBF0FBECDBFC8
:080CE000ED010895F894FFCF27
:100CE8000100000002000000005300000000004165
:0E0CF80044432056616C75653A2025750A004C
:00000001FF
