:100000000C942A000C9447000C9447000C94470071
:100010000C9449000C9447000C9447000C94470042
:100020000C9447000C9447000C9447000C94470034
:100030000C9447000C9447000C9447000C94470024
:100040000C9447000C9447000C9447000C94A900B2
:100050000C94470011241FBECFE5D8E0DEBFCDBF12
:1000600010E0A0E6B0E0E8E6F3E002C005900D92F3
:10007000A436B107D9F720E0A4E6B0E001C01D9294
:10008000A537B207E1F70E9428010C94B2010C9445
:1000900000001F920F920FB60F9211242F933F93DF
:1000A0004F935F936F937F938F939F93AF93209121
:1000B0006D0030916E0040916F0050917000609122
:1000C0007100709172008091730090917400A1E0B2
:1000D0000E94890120936D0030936E0040936F0061
:1000E000509370006093710070937200809373005E
:1000F00090937400AF919F918F917F916F915F91D9
:100100004F913F912F910F900FBE0F901F90189518
:1001100085B5846085BD85B5886085BD80E889BF6B
:1001200088BF14BC89EF83BD78940895F89420911A
:100130006D0030916E0040916F00509170006091A1
:1001400071007091720080917300909174007894A6
:1001500008951F920F920FB60F9211242F935F9361
:100160006F937F938F939F93AF93BF9381B18C7F56
:10017000803469F0803579F0883001F581E0809332
:100180006C0083E083B986B78F7D86BF17C086B7C2
:100190008F7C86BF13C010926C0083B124EB829FCA
:1001A000C00111246FEF70E00E947501609361003F
:1001B00086B7806186BF86B78F7D86BF86B7806829
:1001C00086BFBF91AF919F918F917F916F915F910A
:1001D0002F910F900FBE0F901F90189582E88FBD42
:1001E0008AE18EBD8FE39CE997BD86BD81B38062B5
:1001F00081BB84EA9BE09BBD8ABD0895809161002C
:1002000020916000082E000C990B821B910927FD9C
:1002100093959C01992324F422273327281B390B1B
:1002200023303105A4F080916100809360008091BB
:10023000610080936200809162002BE0829FC00188
:1002400011248C509E4F880F991F9BBD8ABD089525
:100250000E9488000E94EE0085B3836085BB82E126
:1002600080B986B7856486BF78940E949600822EF6
:10027000932ED42FC52FB62FA72FF82FE92FA0909C
:100280006400B0906500C0906600D0906700E09078
:100290006800F090690000916A0010916B000E9464
:1002A0009501273C31054105510561057105810521
:1002B0009105C1F0B8F080916C00811113C080925B
:1002C000640090926500D0936600C0936700B0937D
:1002D0006800A0936900F0936A00E0936B0086B712
:1002E000806286BF0E94FE00C0CF97FB072E16F4E7
:1002F000009407D077FD09D00E949E0107FC05D02D
:100300003EF4909581959F4F0895709561957F4F2C
:1003100008950024A7FD00942A0F301D401D501D94
:10032000601D701D801D901D08952A193B094C0900
:100330005D096E097F09800B910B0895AA1BBB1BF9
:1003400051E107C0AA1FBB1FA617B70710F0A61BD5
:10035000B70B881F991F5A95A9F780959095BC01F6
:08036000CD010895F894FFCFD0
:040368005A5A5A0083
:00000001FF
